:100000000C943C060C9483060C9483060C940D2CE3
:100010000C9483060C9483060C9483060C9483063C
:100020000C9483060C9483060C94B2170C94EE1671
:100030000C9494240C9483060C9483060C948306ED
:100040000C9483060C9483060C9483060C9483060C
:100050000C9483060C9447240C9483060C9483061A
:100060000C9483060C9483060C9483060C948306EC
:100070000C9483060C9483060C9483060C948306DC
:100080000C9483060C9483060C9483060C948306CC
:100090000C9483060C9483060C9483060C948306BC
:1000A0000C9483060C9483060C9483069D09AD0979
:1000B000A009AD09A309AD09AD09AD09A609AD09AE
:1000C000A609AD09A609AD09A609260B290B450B02
:1000D000520B590B790B7C0BB00BD20B700C7A0CBA
:1000E000DD0BDF0BE30B070C280C2B0C2E0C510C3B
:1000F00056105610901090106A126A126A126A1204
:10010000E310C111D211D211B612E012E512EA12B7
:10011000EF12F412F912FE12031308130D13141345
:1001200017131A131D1320132313261329132E1329
:1001300003152A15C6162A15C61672159515C61664
:1001400084169816DD28DD28F028F028E628F02807
:10015000F028F028DD28DD28EB28F028F028EB280F
:1001600000DA0281FFD9F1DB20A4A62EAF00A0C0E7
:1001700000A1C800AED580A81FD300408D14200078
:1001800032190A00047F3F1F643214643214783C31
:100190001E1E140A0541646A757374005261697306
:1001A00065004C6F7765720044656661756C74001C
:1001B0004C617965723A20008081828384858687CC
:1001C00088898A8B8C8D8E8F9091929394A0A1A216
:1001D000A3A4A5A6A7A8A9AAABACADAEAFB0B1B277
:1001E000B3B4C0C1C2C3C4C5C6C7C8C9CACBCCCDCD
:1001F000CECFD0D1D2D3D40000AE0000000000009A
:1002000000000000000000000000000000007E0F61
:1002100000D4FFFFFFC700000078000000000000CE
:1002200000002A2B28000000000000000000000051
:10023000000000000029000000002C1E34202122B4
:1002400024342627252E362D3738271E1F2021221D
:10025000232425263333362E37381F040506070896
:10026000090A0B0C0D0E0F10111213141516171886
:10027000191A1B1C1D2F3130232D350405060708C4
:10028000090A0B0C0D0E0F10111213141516171866
:10029000191A1B1C1D2F3130354C0660FF0961A156
:1002A000010962150026FF00952075088102096387
:1002B000150026FF00952075089102C0050109066A
:1002C000A101050719E029E7150025019508750129
:1002D00081029501750881010507190029FF1500A4
:1002E00026FF009506750881000508190129059566
:1002F0000575019102950175039101C00902420043
:10030000020100A0FA090400000103010100092113
:10031000110100012240000705810308000A0904B9
:100320000100020300000009211101000122220046
:1003300007058203200001070503032000011201C5
:1003400010010000000853460100010001020001F5
:10035000480343006F0072006E00650020004B00F0
:100360006500790062006F00610072006400200087
:100370005200650076002E00310020002800530056
:1003800070006C0069007400200043006F006D0075
:100390006D006F006E0029000000100366006F0002
:1003A0006F007300740061006E0000000403090414
:1003B0000000000000003E5B4F5B3E003E6B4F6B59
:1003C0003E001C3E7C3E1C00183C7E3C18001C5726
:1003D0007D571C001C5E7F5E1C0000183C1800004E
:1003E000FFE7C3E7FF00001824180000FFE7DBE782
:1003F000FF0030483A060E00262979292600407F62
:1004000005050700407F05253F005A3CE73C5A00A0
:100410007F3E1C1C0800081C1C3E7F0014227F220B
:1004200014005F5F005F5F0006097F017F000066C8
:1004300089956A0060606060600094A2FFA29400E9
:1004400008047E04080010207E20100008082A1CE2
:100450000800081C2A0808001E10101010000C1EAE
:100460000C1E0C0030383E383000060E3E0E0600E2
:1004700000000000000000005F000000000700070F
:100480000000147F147F1400242A7F2A12002313F3
:100490000864620036495620500000080703000037
:1004A000001C224100000041221C00002A1C7F1C6D
:1004B0002A0008083E080800008070300000080884
:1004C0000808080000006060000020100804020016
:1004D0003E5149453E0000427F4000007249494973
:1004E00046002141494D33001814127F1000274562
:1004F000454539003C4A494931004121110907006D
:10050000364949493600464949291E000000140071
:1005100000000040340000000008142241001414C0
:1005200014141400004122140800020159090600A5
:100530003E415D594E007C1211127C007F494949B1
:1005400036003E41414122007F4141413E007F490A
:10055000494941007F09090901003E4141517300A9
:100560007F0808087F0000417F4100002040413F94
:1005700001007F08142241007F40404040007F027C
:100580001C027F007F0408107F003E4141413E0075
:100590007F09090906003E4151215E007F091929A2
:1005A000460026494949320003017F0103003F40CC
:1005B00040403F001F2040201F003F4038403F0088
:1005C0006314081463000304780403006159494D5F
:1005D0004300007F41414100020408102000004117
:1005E00041417F00040201020400404040404000BD
:1005F0000003070800002054547840007F2844443A
:100600003800384444442800384444287F00385493
:100610005454180000087E0902001824241C780095
:100620007F080404780000447D4000002040403DE5
:1006300000007F102844000000417F4000007C043F
:10064000780478007C080404780038444444380076
:100650007C1824241800182424187C007C08040426
:10066000080048545454240004043F4424003C40EF
:1006700040207C001C2040201C003C4030403C00BE
:100680004428102844004C9090907C004464544CC2
:1006900044000008364100000000770000000041DF
:1006A000360800000201020402003C2623263C001A
:1006B000000000000000000000000000000000003A
:1006C000C0E0F0F8F81800C0F0FCFEFFFFFFFFFFED
:1006D000FFFF7E00000000000000000080C0E0E09E
:1006E000E0E0E0E0E0E0C0800000000080C0E0E08A
:1006F000E0E0E0E0E0E0C080000000E0E0C0C0E05A
:10070000E0E0E00000E0E0C0C0E0E0E0E0E0C08069
:100710000000000080C0E0E0E0E0E0E0E0E0C08059
:100720000000000000000000000000000000E0F0F9
:10073000F0F0E0ECEEF7F37020007C7C7C7E007E35
:100740007E7E7F7F7F000080C0E07E5B4F5BFEC0CF
:100750000000C000DCD7DEDEDED7DC00C000000019
:100760000000000000000000000000000000000089
:10077000000000000000000000F8FCFEFFE000FFA9
:10078000FFFFFFFFFF80FFFFFFFFFFFFFFFFFF1FD8
:100790000701000000000000000000FFFFFF8100D3
:1007A000000000000081C3C3C30000FFFFFF810001
:1007B000000000000081FFFFFF0000FFFFFF0100BD
:1007C0000000000000FFFFFF010000000001FFFF2C
:1007D000FF0000FFFFFF9D1C1C1C1C1C1C9DDFDF7D
:1007E000DF000000000000000000000000000F1FFC
:1007F0003F7F7F7F7F7F3F1E0C001F1F1F3F003FFB
:100800003F3F7F7F7F00307B7F7830202030787FB4
:100810003B0003000F7F0F0F0F7F0F00030000004E
:1008200000000000000000000000000000000000C8
:10083000000000000000000000030F1F3F3F3F3F8B
:100840001F1F3F3F7F7F7F3F3F1F3F7F7F7F7F7C1B
:100850007878381C0F000000000000000103070733
:100860000707070707070301000000000103070748
:100870000707070707070301000000070707000035
:100880000000000000070707000000000000070745
:100890000700000001030707070707070707030111
:1008A0000000000000000000000000000000000048
:1008B0000000000000000000000000000000000038
:1008C0000000000000000000000000000000000028
:1008D0000000000000000000000000000000000018
:1008E0000000000000000000000000000000000008
:1008F000FFAA7F55402223252628292A2C2D2F3078
:1009000032333536383A3B3D3E4042434547494A0B
:100910004C4E5051535557595A5C5E60626466683C
:10092000696B6D6F71737577797B7D7F8183858747
:10093000898A8C8E90929496989A9C9E9FA1A3A54A
:10094000A7A8AAACAEAFB1B3B4B6B8B9BBBCBEBF72
:10095000C1C2C3C5C6C7C9CACBCCCDCED0D1D2D2F5
:10096000D3D4D5D6D7D7D8D9D9DADADBDBDBDCDC00
:10097000DCDCDCDDDDDDDDDCDCDCDCDCDBDBDBDAB8
:10098000DAD9D9D8D7D7D6D5D4D3D2D2D1D0CECD23
:10099000CCCBCAC9C7C6C5C3C2C1BFBEBCBBB9B830
:1009A000B6B4B3B1AFAEACAAA8A7A5A3A19F9E9CB5
:1009B0009A98969492908E8C8A89878583817F7D80
:1009C0007B79777573716F6D6B6968666462605E61
:1009D0005C5A5957555351504E4C4A49474543422A
:1009E000403E3D3B3A3836353332302F2D2C2A29C4
:1009F00028262523222B0014001A000800150017B2
:100A000000E00004001600070009000A00E1001DD4
:100A1000001B00060019000500000000000000E3B4
:100A200000105F2C002A00130012000C0018001C9C
:100A300000340033000F000E000D000B00290038B9
:100A4000003700360010001100000000000000E632
:100A500000115F28002B001E001F00200021002233
:100A600000E00000000000000000000000E10000C5
:100A7000000000000000000000000000000000E393
:100A80000001002C002A0027002600250024002356
:100A900000000000004F0052005100500000000014
:100AA000000000000000000000000000000000E660
:100AB00000010028002B001E021F0220022102223A
:100AC00002E00000000000000000000000E1000063
:100AD000000000000000000000000000000000E333
:100AE0000001002C002A00270226022502240223EE
:100AF000023500310030002F002E002D003502316C
:100B00000230022F022E022D02000000000000E63B
:100B10000001002800005C00000000000000000050
:100B200000C35CC65CC85CCA5C00000000C45CC753
:100B30005CC95CCB5C00000000000000000000E32A
:100B40000001002C00000000000000000000000078
:100B50000000000000000000000000000000000095
:100B6000000000000000000000000000000000E69F
:100B7000000100280000AF00010101010101010195
:100B80000102020202020202020203030303030340
:100B9000030304040404040404050505050506060E
:100BA00006060607070707070808080809090909CC
:100BB0000A0A0A0B0B0B0C0C0C0D0D0D0E0E0E0F72
:100BC0000F0F101011111112121313141415151602
:100BD000161717181819191A1A1B1B1C1D1D1E1E73
:100BE0001F202021222223242425262627282929C4
:100BF0002A2B2C2D2D2E2F303132323334353637EF
:100C000038393A3B3C3D3E3F4041424344454647EC
:100C100048494A4C4D4E4F50515354555658595AC5
:100C20005B5D5E5F616264656668696B6C6D6F7069
:100C300072737577787A7B7D7E8082838587888AD8
:100C40008C8E8F91939596989A9C9EA0A2A3A5A70F
:100C5000A9ABADAFB1B3B5B7BABCBEC0C2C4C6C90B
:100C6000CBCDCFD1D4D6D8DBDDDFE2E4E7E9EBEEC4
:100C7000F0F3F5F8FAFDFF0011241FBECFEFDAE024
:100C8000DEBFCDBF04B603FE27C08091C1059091A1
:100C9000C205A091C305B091C4058730904BA74011
:100CA000B04BD1F41092C1051092C2051092C30549
:100CB0001092C40514BE84B7877F84BF0FB6F89422
:100CC000A895809160008861809360001092600018
:100CD0000FBEE0E0F8E3099525E0A4ECB1E001C027
:100CE0001D92A13CB207E1F711E0A0E0B1E0E4E41D
:100CF000F3E602C005900D92A43CB107D9F70E941B
:100D000085060C94A0310C940000CF93DF93CDB7EF
:100D1000DEB7AE970FB6F894DEBF0FBECDBF84B777
:100D2000877F84BF0FB6F894A89580916000886192
:100D300080936000109260000FBE90E080E80FB6D4
:100D4000F89480936100909361000FBE85B780682E
:100D500085BF85B7806885BF0E9432170E945117F2
:100D60008091E20084608093E200789480915D023B
:100D70008823A1F01091E9001F709091EC00892F59
:100D8000817090FD80E8182B1092E9008091E800B6
:100D900083FD0E941E141F701093E90082E084BD41
:100DA00093E095BD9AEF97BD80936E000E94AB20B3
:100DB000809314010E94AB20882331F062E070E040
:100DC00084E091E00E94BB2B80911401809114017A
:100DD000882311F090E001C094E09093DB0184E05F
:100DE000891B8093DA0184E90E94C82086E60E946C
:100DF000C82087E90E94C82086EC0E94C8200DE325
:100E000011E083E4E82E81E0F82ED8018D918D0168
:100E10000E94C820E016F106C1F7E2EDF1E08AED8C
:100E200091E0ADE3B2E011921D928E179F07D9F7C2
:100E30000E94BC22EFE3FCE93197F1F700C000000B
:100E40000E94BC2280913D0280FF0AC080E00E9487
:100E5000AA1A6FEF7FEF80E090E00E94B72D57C590
:100E600080E090E00E94932D8C3E9E4F11F00E94F6
:100E7000E8240E94AB20811106C062E070E084E0AB
:100E800091E00E94C42B82E290E00E94852D803286
:100E900081F483E290E00E94852D823151F484E256
:100EA00090E00E94852D91E0883009F090E0892F34
:100EB00001C080E080FF52C50E94AB20811102C0BA
:100EC00082E001C080E08093260280E88093620285
:100ED0000E94762A6DE070E083E791E00E94F513AE
:100EE000892B09F043C08091260263E070E081FD08
:100EF0003AC080E791E00E94F513892BB9F56DE0C7
:100F000070E080E691E00E94F513892B79F50E944C
:100F10007C24DC01CB01805A9541AF4FBF4F8093B9
:100F2000280290932902A0932A02B0932B02E5E6AF
:100F3000F2E080E092E0DF019C011D922150304000
:100F4000E1F7F0936C04E0936B048FEF9FEF9093C5
:100F500064028093630281E080932D0280932C02CF
:100F60001092270203C08DE691E0C5CF80E090E0AB
:100F70000E94932D8C3E9E4F11F00E94E82482E047
:100F800090E00E94852D80932F020E94D724909399
:100F9000DD018093DC0183E090E00E94852D682FC5
:100FA00070E080E090E00E9498268091DE0181113F
:100FB0003BC080E090E00E94932D8C3E9E4F21F03C
:100FC0000E94E8240E94E01F88E090E00E948D2D9E
:100FD000609338027093390280933A0290933B02F7
:100FE0008091ED0183608093ED016E7F71F40E942A
:100FF000E01F88E090E00E948D2D6093380270938E
:10100000390280933A0290933B020E94921F0E9401
:10101000E01A8091380280FF04C060E086950E944B
:10102000692281E08093DE018CE191E09093E00100
:101030008093DF01FE0131967F019E01255F3F4FC6
:101040003CA72BA722242394312C80915D0285306C
:1010500009F03AC080915D02843021F11092E101E3
:1010600020E488E190E00FB6F894A89580936000A2
:101070000FBE2093600083B7817F846083BF83B7F6
:10108000816083BF7894889583B78E7F83BF0FB6C6
:10109000F894A89580916000886180936000109218
:1010A00060000FBE80915302882309F4CECF0E94C6
:1010B000BC2285E492E0EDE3F2E0219121112FC4FE
:1010C0008E179F07D1F7C1CF0E94BC22B82E0E9475
:1010D000AB208823A1F1E0E3F2E0ADE3B2E000E071
:1010E00010E0302F2D919191922721F180E0DD24A5
:1010F000D394492F4D21D1F089A33AA32D2181E02A
:1011000009F480E08BA30E9488248160782F9DA33E
:101110008CA349A15AA16BA18DA10E943519F80198
:10112000E05DFD4F8081D826D08219C08F5FDD0C35
:101130008630F9F60F5F1F4F0830110591F68FEFDB
:101140008EA38FA318A60E9488248160782F9AA767
:1011500089A74EA15FA168A58AA50E943519809133
:10116000EC01882309F4C6C08091EB01E0913802BC
:10117000E695E81BE093E701823049F4F0E0EF5692
:10118000FE4FE4918E2E912C01E219E15EC0863073
:1011900049F4F0E0E257FE4FE4918E2E912C01E1EC
:1011A00019E153C0893051F4E695F0E0E557FE4F60
:1011B000E4918E2E912C08E51DE147C08F3051F44B
:1011C000E695F0E0E857FE4FE4918E2E912C0EEC60
:1011D0001CE13BC0853149F4F0E0EB57FE4FE49150
:1011E0008E2E912C0AE61CE130C08831D9F0833272
:1011F00039F4E3E8F1E08590949003E91DE125C01E
:101200008432B1F08532D9F48E2F63E00E94302E03
:10121000E92FF0E0E058FE4FE4918E2E912C0DE185
:101220001BE113C0B8E28B2E912C01EE1BE10DC027
:10123000A4EF8A2E9924939407EA1BE106C0F0EDEF
:101240008F2EF7E09F2E00E119E18091E8018823BD
:1012500089F01092E8010E9488249401209530952D
:10126000820F931F9093E6018093E5011092EA01AB
:101270001092E9018091E5019091E6010E946D24B0
:1012800088159905B8F18091E4018823B1F0109296
:10129000E4018091E2019091E3010E946D2480338A
:1012A000954758F00E9488249093E3018093E201CF
:1012B0008091ED0188608093ED01C090E901D090AC
:1012C000EA01E091E501F091E6018E0E9F1E9092F9
:1012D000E6018092E50185EE91E0F80109958091A3
:1012E000E9019091EA01892B29F4CD2819F081E0D8
:1012F0008093E40180912D02882309F452C125E6F0
:1013000032E030936C0420936B040E94AB2088235E
:10131000C9F180EB91E00E94C91380915E02909127
:101320005F02A0916002B09161028F309105A8F434
:10133000FC01EA5AFF4F0C94722E88EA91E008C033
:1013400082EA91E005C08CE991E002C085E991E074
:101350000E94C91381E00E94031AEEEEF1E00190B1
:101360000020E9F78F0101501109EEEECE2EE1E0E9
:10137000DE2EC016D10650F4D6018D916D010E946B
:101380004913F7CF88EB91E00E94C91380912D0299
:10139000882309F4DFC02091630230916402211593
:1013A000310509F4D7C0809127028111D3C0482E9E
:1013B000512C6101082E02C0CC0CDD1C0A94E2F70E
:1013C000A9014C215D21452B11F48F5FF0CF909145
:1013D0002602920175E0220F331F7A95E1F790FD06
:1013E00012C08295880F807680931701220F232FD9
:1013F000221F330B319520931A01815E80931801CF
:1014000010921B0112C055E0369527955A95E1F7C9
:10141000220F220F220F2093170110921A01295F29
:101420002093180183E080931B0124E630E047E01D
:1014300050E065E171E088E70E94032B892B09F0F9
:1014400089C08091260280FD23C0C20145E0880F3B
:10145000991F4A95E1F7AC014B595D4F04E610E046
:1014600020E230E060E488E70E942A2B892B09F013
:1014700071C00E94DD19C094D09480916302909154
:101480006402C822D922D0926402C092630262C070
:1014900080E2E6E0F2E011928A95E9F735E0440C4B
:1014A000551C3A95E1F727E431E03EA72DA763E408
:1014B00071E0ADA5BEA58D91BEA7ADA7FB01919131
:1014C000BF01A201490F511D4B595D4F90E08A5F4A
:1014D0009D4FFC0127E0922E9F01281B390B722C97
:1014E00001C0770C2A95EAF78A01812CD801AD90CA
:1014F0008D01A720292D28192770622E022E000C9D
:10150000330BBA2D01C0BB0F6A94EAF76B2E3195ED
:10151000219531092770332701C0A6942A95EAF74F
:101520006A28A0806A286082839428E08212DECF35
:101530009A9431963FEF9312CFCF8DA59EA58B54F1
:10154000914009F0B6CF04E610E020E230E046E03A
:1015500052E088CF80912C02882319F10E947C24CC
:10156000009128021091290220912A0230912B0229
:10157000DC01CB01801B910BA20BB30B8F3F9F4F64
:10158000AF4FBF4770F480912D02882351F062E085
:1015900070E088EF91E00E94F513892B11F410920E
:1015A0002C02B1100E94DD190E94D11990912E02D7
:1015B000891721F00E94D11980932E0280915D023B
:1015C000843009F042CD83E08093E9008091E80007
:1015D00082FF3BCD8091E80085FF22C00E948B18DE
:1015E00081111CC000E210E09E012F5F3F4F690196
:1015F00008C08091F100D6018D936D010150110951
:1016000069F08091E80085FDF4CF8091E8008B7748
:101610008093E8000E948B18882399F391E001C021
:1016200090E08091E8008B778093E800992309F49B
:101630000CCDE9818E2F90E0FC013197E331F1056B
:1016400008F067C1EB59FF4F0C94722E1A8289E0A3
:10165000A2C08A81823009F478C1833051F0813090
:1016600009F057C10E947C249B838C837D836E8309
:1016700052C1FE013396ADE3B2E08D9181932BA56B
:101680003CA5E217F307C9F746C18A81823009F009
:1016900040C16B817C818D819E810E94782E85E284
:1016A00090E024C04C816B818A810E94771A9D83CF
:1016B00053C1CD80DE80DC24CD24DC248C810B81E1
:1016C0009A813CE0039F80011124A0E69A9F000DBF
:1016D000111D1124080F111D080F111D6D2DC801BA
:1016E00086960E94992D6C2DC80187960E94992D8F
:1016F00012C10E94431A0FC18A818138B1F050F49F
:10170000803809F008C120E04B8160913A02809155
:10171000390223C08238E9F0833809F0FCC020E0A8
:1017200040913B026C818B8118C060E08B810E94EC
:1017300069228B81811103C00E945222ECC08091EA
:10174000380281608093380260E086950E946922A9
:10175000E2C08B8180933C02DEC00E94D31DDBC0BF
:101760008A81813899F030F4803809F0D4C08091B2
:101770003B0211C0823899F0833809F0CCC08091C7
:1017800039028B8380913A028C83C5C080913802E4
:1017900080FF03C086958B83BEC080E0FCCF809124
:1017A0003C02F9CF609138027091390280913A027F
:1017B00090913B020E94AC1FAEC080E14DC082E020
:1017C0008A838AE5E8CF0A811B8110270127102729
:1017D000AC80B12C6701C8018A559E4F96012E1925
:1017E0003F092A153B0508F096C00A35B2E01B07F1
:1017F00028F40E94852DF601848303C0D601149637
:101800001C920F5F1F4FBFEFCB1ADB0AE4CF0A8198
:101810001B81102701271027AC80B12C6701C8015C
:101820008A559E4F96012E193F092A153B0508F04F
:1018300072C00A35E2E01E0728F4D60114966C91B6
:101840000E94992D0F5F1F4FBFEFCB1ADB0AE7CF26
:101850000E94331A60C084E08A835DC00A811B81C4
:10186000102701271027AC80B12C6701C80186968C
:1018700096012E193F092A153B0508F04CC0003887
:10188000E1E01E0730F40E94852DD60114968C935A
:1018900002C0F60114820F5F1F4FFFEFCF1ADF0A5D
:1018A000E5CF0A811B81102701271027AC80B12CBE
:1018B0006701C801869696012E193F092A153B0536
:1018C00050F5003821E0120728F4D60114966C91E7
:1018D0000E94992D0F5F1F4FBFEFCB1ADB0AE9CF94
:1018E00080E00E94AA1A6FEF7FEF80E090E00E94F4
:1018F000B72D11C0CE0101960E94EA18EFEFF1EE6C
:1019000024E0E150F0402040E1F700C000000E94D8
:1019100036248FEF8983C7010E94EA1896CB80E1B5
:1019200089BD82E189BD09B400FEFDCF8091D80058
:101930008F7D8093D8008091E00082608093E000EA
:101940008091E00081FDFCCF80CB85E290E00E9499
:10195000852D1B821C821D828E83DDCF60E085E297
:1019600090E00E94992D0E94431A0E94331A81E050
:101970000E94AA1AA1CA5F926F927F928F929F9241
:10198000AF92BF92CF92DF92EF92FF920F931F938D
:10199000CF93DF93CDB7DEB729970FB6F894DEBFAC
:1019A0000FBECDBFFC018081918123813481232B27
:1019B00031F09F3F31F491E08F3F19F403C091E083
:1019C00001C090E090FD4FC67F0185E0DE011196D9
:1019D00001900D928A95E1F7F701228189819A8120
:1019E000222349F00E948525182F682F89819A812A
:1019F0000E94FF2503C00E94D225182F69817A8199
:101A0000812F0E949D1A8C01F7018281882309F49D
:101A1000DEC0C80182519F45409708F08EC58FEF08
:101A200093E00E94852D8111DBC0025136EA832E9E
:101A300099249394002379F08114F4E09F0609F42B
:101A4000CFC0C4010E94852D811101C001501FEF3C
:101A5000811A910AEFCF1E821F821886198666248A
:101A600063942AE0522E84010F5F1F4FC4010E942D
:101A7000852D8E831F82882309F4B2C09FEF980FB3
:101A8000933060F48F836E8222E0820E911CC80135
:101A90000E94852D8887811102C0A2C048018E0155
:101AA0000A5F1F4FF80120812223E9F2213009F05B
:101AB0004CC08181813049F46801F2E0CF0ED11C25
:101AC000F80182810E94B1290AC0823051F4680174
:101AD000F2E0CF0ED11CF80182810E9473298601A9
:101AE00073C0833049F46801F2E0CF0ED11CF801D5
:101AF00082810E941829F3CF843019F00F5F1F4FA5
:101B000063C0F80122810E5F1F4F80E090E030E05B
:101B1000205331092A30310568F4589EA001599E9E
:101B2000500D1124C901840F951F0F5F1F4FF8013D
:101B30002081EDCF009709F447C0EFE9FFE031972E
:101B4000F1F700C000000197F5CFE22FF0E0E65E6C
:101B5000FD4F7490822F86958695869590E0FC01C6
:101B6000E65FFD4FA4902770B12C022E02C0B59401
:101B7000A7940A94E2F7F1E0AF22BB24FC01E650FF
:101B8000FE4FC490D12C02C0D594C7942A95E2F799
:101B900021E0C222DD24A114B10419F081EE0E94DB
:101BA0007329C114D10419F086EE0E947329872D80
:101BB0000E94B129CD2819F086EE0E941829AB2881
:101BC00019F081EE0E9418290F5F1F4F6BCF003173
:101BD000FFE51F0739F581E00E9439260E94D713DF
:101BE0008091AD05877009F43EC5F7018281882395
:101BF00009F439C582E029960FB6F894DEBF0FBE0E
:101C0000CDBFDF91CF911F910F91FF90EF90DF90AB
:101C1000CF90BF90AF909F908F907F906F905F908C
:101C20000C945E2601312FE51207A1F582E0D4CF96
:101C3000C80190568115904230F0C801905481152A
:101C4000904108F089C4C80199278C33910508F0A8
:101C500085C4FC01E45AFE4F20811F922F939F936D
:101C60008F93F70180811F928F9381811F928F93B1
:101C70008BE491E09F938F931F9288E18F938EEE78
:101C800091E09F938F930E94A82E0FB6F894DEBF29
:101C90000FBECDBF043F3CE5130759F190F4093D59
:101CA0009CE51907E9F00A3DECE51E07A1F1083DA6
:101CB000FCE51F07B1F506E221EE41EE68ED7CE59B
:101CC00014C0063F2CE5120701F1C8F0073F8CE570
:101CD000180739F507E225EE46EE67EF7CE505C00B
:101CE00007E225EE45EE69ED7CE5C7010E947F1E07
:101CF00077CF06E221EE40EE64EF7CE5F6CF07E217
:101D000025EE44EE65EF7CE5F0CF06E221EE42EEF3
:101D100066EF7CE5EACF08E221E045EE6AED7CE57E
:101D2000E4CFF7019281992309F43FC11092450253
:101D30000230FCE51F0708F422C106312CE512072A
:101D400038F098012B5F3C452930310508F017C168
:101D50000E94D7249093DD018093DC0100313CE5A3
:101D6000130709F4C3C008F041C008309CE5190707
:101D700009F49AC0F0F40430FCE51F0709F487C0A9
:101D800068F402303CE5130709F477C003301C45C2
:101D900009F0E5C08091DC01826076C006309CE5E8
:101DA000190709F46EC008F07BC08091DC018860DF
:101DB0006BC00C30FCE51F0709F485C068F40A30DD
:101DC0003CE5130709F474C008F079C00E94F428B8
:101DD0008091DC01806858C00E309CE5190709F439
:101DE00076C008F07FC08091DC018BC00C3FFCE521
:101DF0001F0709F44FC018F503313CE5130709F438
:101E00007DC078F401319CE5190709F473C00231F3
:101E10001C4509F0A4C00E94F4288091DC018F7752
:101E200033C00531FCE51F0709F472C008F486C011
:101E30000B3F1C4509F093C08091DD013EC00115A8
:101E40008DE5180709F45FC058F40E3FECE51E0756
:101E500009F444C008F43FC08091DD0182602DC0C8
:101E600002302DE5120709F475C008F45DC0033097
:101E70001D4509F074C060E06EC08091DC01816096
:101E800003C08091DC0180618093DC0168C0809197
:101E9000DC0111C08091DD0182608093DD015FC0B3
:101EA0008091DC018062F0CF8091DC018064ECCF16
:101EB0008091DC0188608460E7CF8160EECF809103
:101EC000DC018E7FE1CF8091DC018D7FDDCF8091C1
:101ED000DC01877FD9CF8091DD0118C08091DD01C1
:101EE0008D7FDBCF8091DC018F7ECECF8091DC01B6
:101EF0008F7DCACF8091DC018F7BC6CF8091DC01C2
:101F0000877F8B7FC1CF8091DD018D7F8E7FC5CF95
:101F10008091DC0182FB222720F991E0922790FB3F
:101F200082F990FB83F9B0CF8091DD01982F9095D5
:101F300091708E7F892B90FB81F9AFCF0E94F4289E
:101F40008091DC0187FB222720F991E0922790FB0A
:101F500087F99ACF61E08EE090E00E94992D609120
:101F6000DC011091DD0184E090E00E94992D612F49
:101F700081E290E00E94992D0E94F42831CE063132
:101F8000FCE51F0751F58091B0058A7A91E009F4CC
:101F900090E090934602882311F065E301C069E266
:101FA0008FE495E00E94BD2415C00631ECE51E07C4
:101FB00059F580914602882309F4D2C285E3EFE403
:101FC000F5E09281891301C01282319695E0E535E2
:101FD000F907B9F70E94582503CE01152CE5120721
:101FE00031F00F3D1C45D1F40E94E824F9CD0E9448
:101FF000F4288FEF94E3ECE081509040E040E1F76B
:1020000000C000000E9436248091B0058272F80161
:10201000E35CFC45E431F10508F4A4C2F70100815A
:102020001181992349F0C8010E948525D82E682F77
:10203000C8010E94FF2504C0C8010E94D225D82EE5
:10204000B8018D2D0E94DF208C01982EF701B580FC
:10205000B2949FE0B922A280A1101092AF058091A6
:10206000AD05877099F0AA2089F0812F807F803498
:1020700021F080E2800F883048F082E00E945E26E6
:102080008091AD058770DD24D3948111D12CC12EB0
:10209000C2948FE0C8228C2D90E08C30910508F01E
:1020A00019C2FC01E858FF4F0C94722E812F807FDB
:1020B0001F70882311F01295107FAA20B9F0112308
:1020C00009F4F3C180E2800F883010F0911006C04F
:1020D0008091B005182B1093B00505C08091AF0515
:1020E000182B1093AF050E945825DFC1802F0E9446
:1020F0001829112309F4EEC1005E1095083010F084
:10210000911006C08091B00518231093B00505C04A
:102110008091AF0518231093AF050E945825DAC1AE
:10212000812F807F1F70803211F01295107F9920CF
:1021300021F0F1E09F16E1F02AC0AA2081F0809101
:10214000B105BB2051F001E0B01207C0182B1817E1
:1021500009F4C0C11093B105BDC1812B10C0BB20D3
:1021600021F021E0B21609F4B5C10E94522527C022
:10217000AA2041F035E03B1508F4ACC1812F0E9444
:102180000E29A8C184E08B1508F4A4C118C0AA20A8
:1021900049F0BB2099F3F701858180FF86C18F70DC
:1021A0008583ECCFBB2059F0093309F090C1FFEFD4
:1021B00017EE23E0F15010402040E1F786C1812F57
:1021C0000E94032987C1812F837009F069C0A11083
:1021D00085C1902F929596959770990F990F802FA2
:1021E0008F70882E912CA12CB12C092E04C0880C44
:1021F000991CAA1CBB1C0A94D2F704FF12C04FE022
:1022000050E060E070E004C0440F551F661F771F68
:102210009A95D2F7DB01CA0180959095A095B0956B
:1022200003C080E090E0DC0116951695412F4370C5
:10223000423019F1C8F40091B2051091B305209114
:10224000B4053091B505413059F088299929AA295A
:10225000BB29BC01CD0160237123822393230AC0D3
:10226000802A912AA22AB32ABC01CD0168297929A2
:102270008A299B290E94982631C188299929AA294F
:10228000BB290091B2051091B3052091B40530919E
:10229000B505BC01CD016027712782279327EACFBE
:1022A000AA2019F0812F817001C08695882309F436
:1022B00015C1902F929596959770990F990F802F31
:1022C0008F70882E912CA12CB12C092E04C0880C63
:1022D000991CAA1CBB1C0A94D2F704FF12C04FE041
:1022E00050E060E070E004C0440F551F661F771F88
:1022F0009A95D2F7DB01CA0180959095A095B0958B
:1023000003C080E090E0DC0116951695412F4370E4
:102310004230D9F068F500915E0210915F02209181
:10232000600230916102413059F088299929AA2927
:10233000BB29BC01CD0160237123822393231EC0DE
:10234000802A912AA22AB32A13C088299929AA2966
:10235000BB2900915E0210915F02209160023091D2
:102360006102BC01CD01602771278227932706C037
:10237000BC01CD01682979298A299B290E942B2635
:10238000ADC01F70AA2039F0812F0E947726802FC0
:102390000E940E29A3C0802F0E940329812F0E9432
:1023A00039269CC0802F32EF931609F440C03915AE
:1023B00038F090EF991661F0E1EF9E1699F170C038
:1023C000F3EF9F16D9F124EF921609F44EC068C0BE
:1023D000AA2019F134E03B1508F47CC01F7181E09C
:1023E00090E0A0E0B0E0AC01BD0104C0440F551F77
:1023F000661F771F1A95D2F780915E0290915F0257
:10240000A0916002B09161028A019B0108271927FF
:102410002A273B27C901B80121C025E02B1508F464
:1024200059C0DCCFAA2029F0812F8F712CC0AA209F
:10243000D9F3812F8F710E9439264CC0AA2089F0D0
:102440001F7181E090E0A0E0B0E0BC01CD0104C0CC
:10245000660F771F881F991F1A95D2F70E942B26A7
:1024600039C060E070E0CB01F9CFAA2079F01F718C
:10247000812F0E94772638E0139FC00111248360CA
:102480008093AD05812F0E94772624C081E00E94B1
:102490005E2681E08B15F0F482E00E945E261AC071
:1024A000AA2039F0BB2009F4BFCF802F0E947329E6
:1024B00011C0BB2009F4BDCF893349F49FEFE7EE8B
:1024C000F3E09150E040F040E1F700C00000802FC1
:1024D0000E94182988EF8C0D843010F40E94D119C5
:1024E000DD2009F4C0C08091AD0580FDBCC0F701BE
:1024F00012828595859585950E947726C7010E9451
:10250000BB0C8091AD0585958595859529960FB66F
:10251000F894DEBF0FBECDBFDF91CF911F910F9119
:10252000FF90EF90DF90CF90BF90AF909F908F90F3
:102530007F906F905F900C94392600318FE51807DB
:1025400011F481E006C001319FE5190709F070CB55
:1025500082E00E94772642CBC80177CB20E27DCB78
:1025600089E22DCDEC57FF4F0C94722E80913802EA
:1025700080FF20C08E7F8093380260913802709176
:10258000390280913A0290913B020E94AC1F0E9456
:10259000E01A8091ED0181608093ED01EFEFF0E7AB
:1025A00002E0E150F0400040E1F700C000000E946E
:1025B000E71A16CB81608093380261E0869550C09F
:1025C00049EA52E262EB72E22CC042EB52E269EA63
:1025D00072E227C040E85FE169E87FE122C049E894
:1025E0005FE160E87FE11DC048E65FE164E77FE10D
:1025F00018C044E75FE168E67FE113C040E55FE1B2
:102600006CE57FE10EC04CE55FE160E57FE109C06C
:102610004EEB5FE16FEC7FE104C04FEC5FE16EEBEE
:102620007FE10E94DA1ADCCA61E081E019C065E04E
:1026300082E011C068E086E00EC06EE089E00BC069
:1026400064E18FE008C067E185E105C061E088E1F1
:1026500007C062E289E10E94C81AC2CA61E083E24F
:102660000E946922BDCA29960FB6F894DEBF0FBE3C
:10267000CDBFDF91CF911F910F91FF90EF90DF9031
:10268000CF90BF90AF909F908F907F906F905F9012
:102690000895CF93DF938A3011F481E003C08D3029
:1026A00029F480E0DF91CF910C94031A682F809178
:1026B0006B0490916C0426E0FC01A5E6B4E0019067
:1026C0000D922A95E1F7603E30F026E0FC01119270
:1026D0002A95E9F70AC0F6E06F9FB0011124605512
:1026E0007C4F46E050E00E947C2DC0916B04D0915D
:1026F0006C0446E050E0BE0185E694E00E949B2E0B
:10270000892B49F19E0125563240A90185E0569555
:1027100047958A95E1F781E090E0BC0102C0660F21
:10272000771F4A95E2F74091630250916402462B6D
:10273000572B2B5F3F4F65E0369527956A95E1F75C
:1027400002C0880F991F2A95E2F7842B952B90934E
:102750006402809363029E012F55324040916202D1
:10276000642F70E0C9010E944A2E481B463010F4C5
:10277000240F311D211582E0380710F020E030E0F1
:102780002B593D4F30936C0420936B04DF91CF9114
:102790000895CF93DF93EC01FE018491882321F00B
:1027A0000E9449132196F8CFDF91CF9108950F939E
:1027B0001F9380915E0290915F02A0916002B091A0
:1027C00061028C019D010670112722273327BC016D
:1027D000CD01063011052105310511F4686001C0F5
:1027E000677F1F910F910C942B26EF92FF920F930E
:1027F0001F93CF93DF93EC017B0164E670E088E7E1
:102800000E947C2A8C01EC0EFD1ECE15DF0561F0C6
:1028100017FD0AC0FE01849164E670E00E94D32A8D
:102820008C012196892B89F30E94572BC801DF91D7
:10283000CF911F910F91FF90EF9008951F93CF9329
:10284000DF93CDB7DEB7AA970FB6F894DEBF0FBE01
:10285000CDBFE5E5F2E08DE592E02091F100219316
:102860008E179F07D1F780915602833009F460C01C
:1028700030F4813071F0823009F49AC0B1C08A30EE
:1028800009F486C08B3009F46BC0893009F0A8C008
:1028900020C080915502813A09F0A2C08091E800E1
:1028A000877F8093E8008091590290915A02892B8A
:1028B00021F468E08AE492E003C060E080E090E008
:1028C00070E00E94182A8091E8008B778093E800DE
:1028D00087C080915502813209F082C080915902EF
:1028E00090915A02892B09F07BC08091E800877F84
:1028F0008093E8008091E80082FD05C080915D0230
:102900008111F8CF6DC02091F3008091F20090E02A
:10291000922B029729F48091F1008B7F813021F472
:102920008091F100809349028091E8008B7754C038
:1029300080915502813A09F053C0809159029091DB
:102940005A02892B09F04CC08091E800877F809360
:10295000E8008091E80080FFFCCF8091260137C01D
:10296000809155028132E1F58091590290915A028D
:10297000892BB1F58091E800877F8093E8000E9461
:10298000C42980915702809326010E94F42828C010
:1029900080915502813221F58091E800877F8093F4
:1029A000E8000E94C429809158028093480218C010
:1029B00080915502813AA1F48091E800877F80934D
:1029C000E8008091E80080FFFCCF8091480280936E
:1029D000F1008091E8008E778093E8000E94C4297E
:1029E0008091E80083FFD2C18091550290915602F8
:1029F000492F50E04A30510508F0C8C1FA01E856A5
:102A0000FF4F0C94722E803821F0823809F0BEC13D
:102A100008C08091520290915302992389F08260FC
:102A20000FC0809159028F70873008F0AFC180933A
:102A3000E9008091EB0085FB882780F91092E9007E
:102A40009091E800977F9093E8008093F1001092B6
:102A5000F10066C1282F2D7F09F098C1882319F055
:102A6000823061F093C180915702813009F08EC1AC
:102A7000933009F080E0809353022EC0809157027A
:102A800081112AC0809159028F702FEF280F2630B4
:102A900008F07CC18093E9002091EB0020FF1CC06E
:102AA000933021F48091EB00806214C09091EB0090
:102AB00090619093EB0021E030E0A90102C0440F47
:102AC000551F8A95E2F74093EA001092EA00809140
:102AD000EB0088608093EB001092E9008091E800A1
:102AE000877F21C1811152C1109157021F778091B8
:102AF000E3008078812B8093E3008091E800877F5A
:102B00008093E8000E94C4298091E80080FFFCCFF8
:102B10008091E30080688093E300111102C082E09D
:102B200001C083E080935D0231C18058823008F09B
:102B30002DC180915702909158028C3D53E095072A
:102B400079F583E08A838AE289834FB7F894DE01BE
:102B5000139620E03EE051E2E32FF0E0509357005F
:102B6000E49120FF03C0E295EF703F5FEF708E2F7E
:102B700090E0EA3010F0C79601C0C0968D939D9307
:102B80002F5F243149F74FBF8091E800877F809302
:102B9000E8006AE270E0CE0101960E94182AAEC0F9
:102BA0004091590250915A02292F33272330310581
:102BB000A9F068F42130310509F4F7C0223031055D
:102BC00009F0E4C082E490E0ECEFF2E044C021328E
:102BD000310521F12232310571F1D8C099278130B8
:102BE0009105A1F058F0029709F0D0C0E0E5F3E0BC
:102BF000E4918E2F90E0E0E5F3E02AC0ECEAF3E008
:102C0000E4918E2F90E0ECEAF3E022C0EAE9F3E0F1
:102C1000E4918E2F90E0EAE9F3E01AC041155105E6
:102C200009F4C8C04130510509F0B0C089E090E016
:102C3000E7E2F3E010C04115510509F4C0C041308E
:102C4000510509F0A3C082E290E0EAE9F2E003C096
:102C5000009709F49BC02091E800277F2093E800AB
:102C600020915B0230915C028217930708F49C016B
:102C700040E02115310589F180915D02882309F436
:102C80003DC08530D9F18091E80083FD37C0809147
:102C9000E80082FD2FC08091E80080FFEACF4091DC
:102CA000F3008091F20090E0942B2115310559F04A
:102CB0008830910540F444914093F10031962150C1
:102CC00031090196F2CF41E0089709F040E0809188
:102CD000E8008E778093E800CCCF4111CDCF0AC0B9
:102CE00080915D02882351F0853041F08091E800A9
:102CF00083FD04C08091E80082FFF2CF8091E8005C
:102D00008B778093E80042C0803809F03FC0809103
:102D1000E800877F8093E800809154028093F1005F
:102D20008091E8008E778093E8000E94C4292EC02D
:102D300081112CC0809157029091580299270297D7
:102D40002CF58091E800877F8093E800109157026E
:102D5000109354020E94C429111106C08091E3000F
:102D600087FD02C081E001C084E080935D0242E003
:102D700061EC81E00E94E32942E261EC82E00E9482
:102D8000E32942E260EC83E00E94E3298091E800BD
:102D900083FF1AC08091E800877F8093E8008091CC
:102DA000EB0080628093EB000FC082E190E0EEE3E5
:102DB000F3E051CF89E090E0EEE0F3E04CCF80E427
:102DC00090E0ECEBF2E047CFAA960FB6F894DEBFA6
:102DD0000FBECDBFDF91CF911F9108951F920F922B
:102DE0000FB60F9211242F933F934F935F936F93DE
:102DF0007F938F939F93AF93BF93CF93DF93EF9383
:102E0000FF93C091E900CF708091EC00D82FD17072
:102E100080FDD0E81092E9008091F000877F8093D8
:102E2000F00078940E941E141092E9008091F00046
:102E300088608093F000CD2BCF70C093E900FF91A4
:102E4000EF91DF91CF91BF91AF919F918F917F9142
:102E50006F915F914F913F912F910F900FBE0F9007
:102E60001F901895E8EDF0E080818E7F80831092AE
:102E7000E2001092DA001092E100A0EEB0E08C9136
:102E800081608C9380818F77808319BCA7EDB0E03F
:102E90008C918E7F8C9380818F7E808310924702ED
:102EA0000895CF92DF92EF92FF920F931F93CF93EB
:102EB000DF93C8EDD0E088818F7E8883E7EDF0E076
:102EC00080818160808384E082BF81E080934702BB
:102ED00088818E7F888302EE10E0F80110821092C4
:102EE000DA0081EEC82ED12CF601108288818F770E
:102EF000888388818068888388818F7D888319BCD6
:102F000010925D02109254021092530210925202DB
:102F100090EEE92EF12CF70180818B7F80838881F0
:102F20008160888342E060E080E00E94E329F6014E
:102F300080818E7F8083F8018081816080838081A1
:102F400088608083F70180818E7F808388818061A3
:102F50008883DF91CF911F910F91FF90EF90DF90C9
:102F6000CF9008951F920F920FB60F9211242F93B6
:102F70003F934F935F936F937F938F939F93AF9301
:102F8000BF93EF93FF938091E10082FF09C080918E
:102F9000E20082FF05C08091E1008B7F8093E10019
:102FA0008091DA0080FF2AC08091D80080FF26C07F
:102FB0008091DA008E7F8093DA008091D90080FFC3
:102FC00018C080E189BD82E189BD09B400FEFDCF52
:102FD00081E080935D028091470281110FC00E94C1
:102FE00032170E9451178091E20084608093E200C2
:102FF00005C019BC10925D02109247028091E10059
:1030000080FF17C08091E20080FF13C08091E20032
:103010008E7F8093E2008091E20080618093E200E5
:103020008091D80080628093D80019BC85E080939D
:103030005D028091E10084FF32C08091E20084FF54
:103040002EC080E189BD82E189BD09B400FEFDCFBB
:103050008091D8008F7D8093D8008091E1008F7E91
:103060008093E1008091E2008F7E8093E200809166
:10307000E20081608093E20080915402882311F085
:1030800084E007C08091E30087FD02C081E001C0B9
:1030900083E080935D020E94F4280E94D119809100
:1030A000E10083FF27C08091E20083FF23C080916D
:1030B000E100877F8093E10082E080935D021092BF
:1030C00054028091E1008E7F8093E1008091E200C4
:1030D0008E7F8093E2008091E20080618093E20025
:1030E00042E060E080E00E94E3298091F000886087
:1030F0008093F000FF91EF91BF91AF919F918F91DD
:103100007F916F915F914F913F912F910F900FBEE3
:103110000F901F9018952091E4003091E50095E6FE
:103120004091EC00842F817040FF23C08091E80023
:1031300080FD1DC080915D02882399F0853099F053
:103140008091EB0085FD11C04091E4005091E500B5
:103150002417350729F3915011F09A01E1CF84E04B
:10316000089582E0089583E0089581E0089580E065
:1031700008954091E80042FFDDCF0895EF92FF925D
:103180000F931F93CF93DF937C018B010E948B18C9
:10319000811119C0E70101151105A1F08091E80026
:1031A00085FD0AC08091E8008E778093E8000E9438
:1031B0008B18882381F307C089918093F100015017
:1031C0001109E9CF80E0DF91CF911F910F91FF901E
:1031D000EF900895CF9320915D022430F9F4C091CF
:1031E000E900CF703091EC00232F217030FD20E8F2
:1031F000C22B22E02093E9002091E80020FF0BC0C1
:1032000040E050E060E270E00E94BE188091E8006B
:103210008E778093E800CF70C093E900CF91089536
:103220000895CF93DF93EC01E8E3F2E043816281FC
:103230008C810E9491208C818F5F8C83DF91CF9154
:103240000895CF93DF93EC01EC81F0E0EB50F74F62
:103250004491E8E3F2E0628181810E9491208C81B7
:103260008F5F8C83DF91CF9108951F93CF93DF936E
:10327000CDB7DEB767970FB6F894DEBF0FBECDBFF0
:103280004B8B5C8B6D8B7E8B8F8B86E09E01235FDF
:103290003F4FD901E82F1D92EA95E9F795E0FE012D
:1032A0007396D90101900D929A95E1F7F901DE012B
:1032B000179601900D928A95E1F7CE0107960E942C
:1032C0001C2781113EC086E0FE013796DE01119673
:1032D00001900D928A95E1F7FF81E8856A857B85EB
:1032E0006115710531F0EF3F31F481E0FF3F19F4D2
:1032F00003C081E001C080E080FD23C020915D0516
:1033000030E0C90101968770992740918E0550E001
:103310008417950779F1F983EA837D836C8396E0BE
:10332000929FD001939FB00D1124A25ABA4FFE0173
:10333000319601900D929A95E1F780935D050E9478
:10334000A62616E080918E0590915D058917F9F00B
:10335000189FC0011124825A9A4F0E941C2788236B
:10336000B1F080918E0590E0019687709927809347
:103370008E05E8CF0E94F42810925D0510928E050C
:10338000E7E5F5E086E0DF011D928A95E9F76796AB
:103390000FB6F894DEBF0FBECDBFDF91CF911F9166
:1033A0000895E091DF01F091E001309721F0019064
:1033B000F081E02D099480E0089580912D0288230A
:1033C000F9F00E947C24DC01CB01805A9541AF4F7B
:1033D000BF4F8093280290932902A0932A02B093B2
:1033E0002B0280912C0281110BC062E070E085E716
:1033F0009BE00E94F513892B19F481E080932C0245
:1034000080912C020895CF93E82F20916B04309186
:103410006C042556324040916202642F70E0C9016D
:103420000E944A2E481B842FEE2351F066E00E9432
:10343000302EC82FC150A8F080E20E944913FACF65
:10344000A901480F511D4115524018F080E020E0BD
:1034500030E0280F311D2B593D4F30936C042093E1
:103460006B04CF910895CF93DF93C6EAD1E060E07B
:10347000CE010E94992D2196C11584E0D807B9F795
:10348000DF91CF910895CF92DF92EF92FF920F9349
:103490001F93CF93DF93C0E0D0E08E01005A1F4FFF
:1034A0006E018CE0C80ED11CFE01EB50F64FE5908A
:1034B000F4906F2DCE0186960E94992D6E2DCE012F
:1034C00087960E94992D2296CC15DD0569F70C1779
:1034D0001D0731F7E80100381140F9F6DF91CF916F
:1034E0001F910F91FF90EF90DF90CF9008950F9371
:1034F0001F93CF93DF93C42FD0E0CC0FDD1F2CE0C0
:10350000629FC00DD11D112430E6839FC00DD11DD7
:103510001124CE0186960E94852D082F10E0102FD1
:103520000027CE0187960E94852D9801282BC9017E
:10353000DF91CF911F910F910895462F843038F479
:10354000783028F4663018F4672F0C94771A80E0EE
:1035500090E00895CF93C82F811102C06FEF01C092
:1035600060E282E290E00E94992DC11102C06FEFEB
:1035700001C062E183E290E00E94992DC11102C076
:103580006FEF01C068E084E290E0CF910C94992D38
:103590009091380290FF04C09695981740F003C0B0
:1035A000811105C090E0961710F40C94B22261E0EE
:1035B0000C946922882311F0FA0101C0FB010994DF
:1035C000EBEEF1E011828281846082830895809124
:1035D000380280FF0AC0539A8BB1877F9BB19860F5
:1035E0002FB7F894E0E7F4E00BC0E0E7F4E01182D5
:1035F00010821282339634E0E13CF307C1F7EBCF3F
:1036000034E0E13CF30789F0319148E09BB90000D8
:1036100000C037FF8BB9330F000000C000C000C0EE
:103620008BB900C04A9591F7EBCF2FBF8FE594E09F
:103630000197F1F700C0000008958F929F92AF921A
:10364000BF92CF92DF92EF92FF920F931F93CF938F
:10365000DF93FC01B280948081E08483C1ECD4E0EC
:1036600000E714E08BE4A82E88248394EE24EA94E7
:10367000F12C2BE4C22ED12C911003C01B821A8294
:103680004AC02B81222311F121502B833C8133230B
:1036900019F09A2D921B01C0922F80913B02899FB5
:1036A000C0011124B6010E944A2E6A83211104C070
:1036B000332311F01C82AB8222E02B1560F1809144
:1036C0003902888380913A02898325C00E946C2D3B
:1036D0008230914004F582E08B1530F40E946C2D0D
:1036E000B7010E945E2E02C080913902888322E0D9
:1036F0002B1558F40E946C2D20913A022695622FCA
:1037000070E00E945E2E820F02C080913A0289838F
:103710001A82AB828C8298014A81698188810E94D9
:10372000F81F25960D5F1F4F85E0C834D80709F0B4
:10373000A3CFDF91CF911F910F91FF90EF90DF907A
:10374000CF90BF90AF909F908F900C94E71AEF921C
:10375000FF920F931F93CF93DF938C01C0E7D4E0C8
:10376000E12CF12CF8018481FDE0EF16F1041CF44A
:10377000882339F002C0811104C09E0140913B02B0
:1037800002C09E0140E060913A02809139020E949D
:10379000F81F8FEFE81AF80A23969BE1E916F10467
:1037A00009F70E94E71AF801848190E00196817080
:1037B00099278483DF91CF911F910F91FF90EF9014
:1037C00008958F929F92AF92BF92CF92DF92EF9225
:1037D000FF920F931F93CF93DF93EC014C81042F43
:1037E00010E09801D8010E94212E9B01AC010E949B
:1037F000EC2D6B017C01E0E2F0E0E01BF10BA5E5B4
:10380000B0E09B01AC010E94EC2D4B015C019F01DB
:10381000DF010E947F2E9B01AC010E94F72D9B01CE
:10382000AC012C0D3D1D4E1D5F1DC501B4010E9454
:10383000FF2D822FF22E99E2921728F093E0299F14
:10384000900111240DC025E530E0281B3109C90184
:10385000880F991F280F391F37FF02C02F5F3F4F76
:1038600035952795122F109590E7C92E94E0D92E03
:1038700000E085E5E82EEF1801FD02C08E2D01C0A5
:103880008F2D9601412F60913A020E94F81F0F5F21
:1038900083E0C80ED11C0B3179F70E94E71A8C81A6
:1038A000811102C091E003C0803219F49FEF909320
:1038B000340190913401890F8C83DF91CF911F9156
:1038C0000F91FF90EF90DF90CF90BF90AF909F90BF
:1038D0008F900895EF92FF920F931F93CF93DF93F2
:1038E0007C01FC018481811109C081E084831092F4
:1038F0006E0492E09093330180933201C0E7D4E0EC
:10390000FE01118210821282339684E0E13CF807B6
:10391000C1F700E010E080916E04082E000C990BB6
:103920000817190794F080913301082E000C990BA9
:103930008017910754F09E0140913B0260913A023A
:10394000809139020E94F81F03C0198218821A82DE
:103950000F5F1F4F23960B311105E9F60E94E71AFE
:103960008091320190916E04980F90936E04209193
:103970003301280F20933301121614F49A313CF0CE
:10398000819580933201813011F4F7011482DF9127
:10399000CF911F910F91FF90EF9008959F92AF925A
:1039A000BF92CF92DF92EF92FF920F931F93CF932C
:1039B000DF93EC018A8180FF03C0BB24BA9402C06C
:1039C000BB24B3948C8181110BC081E0B81204C078
:1039D0008AE180936D0402C010926D0481E08C83B3
:1039E00020E7E22E24E0F22E00E010E03BE1932EEF
:1039F000F70111821082128294E0C92ED12CA12CE1
:103A000080916D048A0D8C312CF0692D0E943C2E22
:103A1000892F02C087FD855E082E000C990B0817C0
:103A2000190791F480913B028C9DA0018D9D500D52
:103A300011245595479555954795970160913A0200
:103A4000809139020E94F81FAB0CF1E0CF1AD10827
:103A5000B9F60F5F1F4F83E0E80EF11C0B31110523
:103A600039F60E94E71A80916D0491E0B9120CC0FA
:103A7000811105C08AE180936D041C820DC08150C4
:103A800080936D04BC8208C090E00196B8010E944A
:103A90005E2E80936D048C83DF91CF911F910F91E7
:103AA000FF90EF90DF90CF90BF90AF909F900895E0
:103AB000EF92FF921F93CF93DF93EC0180E7E82E04
:103AC00084E0F82E10E08C81970140913B026091D8
:103AD0003A02810F0E94F81F175F83E0E80EF11C85
:103AE000133F89F70E94E71A9A818C8190FF02C0E8
:103AF0008F5F01C081508C83DF91CF911F91FF9028
:103B0000EF9008959091380290FF0CC0E0E7F4E048
:103B1000818360834283339694E0E13CF907C1F7E7
:103B20000C94E71A08950F931F93CF93DF9300D05F
:103B30001F92CDB7DEB78C0180916F0481110AC04E
:103B40009E012F5F3F4F48E76FEF0E94F81F8A8169
:103B500080936F04F8018481813051F028F0823025
:103B600061F440916F040AC080916F0440E007C087
:103B700060916F0440E080E003C040E080E060E0DE
:103B80000E94821DF801848190E0019663E070E05C
:103B90000E945E2E84830F900F900F90DF91CF9143
:103BA0001F910F9108955F926F927F928F929F92D3
:103BB000AF92BF92CF92DF92EF92FF920F931F933B
:103BC000CF93DF9300D01F92CDB7DEB7182F762E9C
:103BD000042F622E9091380290FF7EC0E92FE69567
:103BE000AE2FB0E0A856BE4F8C918093EB019E7F24
:103BF000923061F49E012F5F3F4F812F0E94F81F8A
:103C00004B8169818A810E94821D43C0823019F4F0
:103C100000913B023EC0863019F41091390239C040
:103C20008930D9F38931A9F5E9518E2F8170582E49
:103C3000E695F0E0E051F74FA590B49080E7C82EEC
:103C400084E0D82EE12CF12CBB249BE1892E912C11
:103C5000AE9CC001AF9C900DBE9C900D1124B40190
:103C60000E944A2E812F511002C0860F01C0861B70
:103C70009601402F672D0E94F81F8FEFE81AF80A6F
:103C800083E0C80ED11C8BE1E816F10409F70E940D
:103C9000E71A80913902181308C080913A0278120D
:103CA00004C080913B02081729F08091ED018260E9
:103CB0008093ED011093390270923A0200933B0217
:103CC000662051F0609138027091390280913A0279
:103CD00090913B020E94AC1F0F900F900F90DF91CC
:103CE000CF911F910F91FF90EF90DF90CF90BF90F9
:103CF000AF909F908F907F906F905F9008950F93FB
:103D00001F93CF93DF93C42FD22FFC01828188238E
:103D1000C9F0409345020E948824909349058093FE
:103D2000480580E28C0F883008F057C0C77081E0EA
:103D300001C0880FCA95EAF7DF91CF911F910F91CB
:103D40000C940E2980914502481330C0809148059B
:103D5000909149050E946D24883C910538F510E248
:103D60001D0FCD17B9F080E28C0F883040F4C7707A
:103D700081E001C0880FCA95EAF70E940329183034
:103D800028F581E09D2F977001C0880F9A95EAF77A
:103D90000E940E29802F0E94B1291830F0F4D770AC
:103DA00081E001C0880FDA95EAF70AC080E28C0F43
:103DB000883098F4C77081E001C0880FCA95EAF78F
:103DC000DF91CF911F910F910C940329802FDF91E8
:103DD000CF911F910F910C94B129DF91CF911F9139
:103DE0000F91089560913802669570E04BE050E0C5
:103DF00087E291E00E948E2E892B19F481E0809356
:103E0000EC010E9488249093E6018093E501809163
:103E1000ED0184608093ED0108959091DC0192FFA3
:103E20000DC0282F2871283019F4877F846006C0C0
:103E3000282F2471243011F48B7F886093FF0DC0EC
:103E4000282F2871283119F4877E846106C0282F15
:103E50002471243111F48B7E88612091DD0120FFD3
:103E60000DC0382F3871383019F4877F816006C053
:103E7000382F3171313011F48E7F886021FF0DC0F1
:103E8000282F2871283119F4877E816106C0282FD8
:103E90002171213111F48E7E886194FD877E089511
:103EA000E8E3F2E0438121E1421B08F440E021E035
:103EB000628181810C94D31DE8E3F2E0438121E12A
:103EC000420F08F44FEF21E0628181810C94D31DF1
:103ED000E8E3F2E0628121E1621B08F460E021E0A6
:103EE000438181810C94D31DE8E3F2E0628121E1FA
:103EF000620F08F46FEF21E0438181810C94D31DA0
:103F0000E8E3F2E0818121E0438162818A500C94F0
:103F1000D31DE8E3F2E0818121E043816281865F85
:103F20000C94D31D80913802282F269530E021155E
:103F3000310519F48170826005C02B32310524F0FF
:103F4000817084658093380280913B02893718F034
:103F500088E780933B020895CF92DF92EF92FF9221
:103F60006B017C010E94921FB701A60188E090E0DE
:103F7000FF90EF90DF90CF900C94AB2D80913C029E
:103F8000882319F0815080933C026091380270912F
:103F9000390280913A0290913B020C94AC1F8091BF
:103FA0003C02833018F48F5F80933C0260913802AA
:103FB0007091390280913A0290913B020C94AC1FAF
:103FC000E8E3F2E083E0808311828FEF828388E769
:103FD00083831482ABEEB1E012968C9112978360CA
:103FE00012968C9360817181828193810C94AC1FB5
:103FF000AF92BF92CF92DF92EF92FF920F931F93F7
:10400000CF93DF93E82EF62EE901493708F048E711
:10401000E42FF0E0F11006C0E958F44FE4914E2F80
:104020002E2F71C00F2D10E0E958F44F4491F42F5A
:10403000C42ED12C26E0E29EC00111242FEF30E0E7
:10404000B9010E944A2E5BEA5603C001579F900DAA
:1040500011248E0D911D8E0D911D582F550F580F47
:10406000D901A01BB10BAC9DC001AD9D900DBC9DB5
:10407000900D1124E92FF59ED0011124AB2FBB2701
:104080007901EA1AFB0AEC9CD001ED9CB00DFC9C76
:10409000B00D11245901A51AB108A09E7001A19E6E
:1040A000F00CB09EF00C1124EF2CFF242E193F09C8
:1040B0002C9D80012D9D100D3C9D100D1124212F54
:1040C0006230710591F048F461157105E1F06130DD
:1040D0007105B9F4242F4B2F16C06430710569F0B7
:1040E00040F06630710579F00CC0242F492FE12F84
:1040F0000AC0492FEF2F2B2F06C0292FE42F412F65
:1041000002C0292FEB2F49832883EA83DF91CF91C7
:104110001F910F91FF90EF90DF90CF90BF90AF90E5
:104120000895CF93DF9300D01F92CDB7DEB7909163
:10413000380290FF0AC09E012F5F3F4F0E94F81F78
:104140004B8169818A810E94821D0F900F900F9090
:10415000DF91CF91089580914E05811112C0809119
:10416000D80080618093D8008AE18A95F1F700C079
:104170008091D90080FD02C082E001C081E080937F
:104180004E0581E090914E05913009F080E0089550
:10419000F894E82FE295EF70F0E031A1282F2F700E
:1041A00081E090E001C0880F2A95EAF7982F90955A
:1041B000932391A392A1892B82A378940895CF93FE
:1041C000DF930E949D1AEC018238910559F1A0F409
:1041D0008133910509F473C040F48932910509F4E3
:1041E00067C08A9709F472C078C08533910509F4D5
:1041F00058C0C997B9F071C0833E910571F138F488
:10420000803E9105B1F0823E910511F166C0863E77
:104210009105B9F1873E9105C9F1843E910509F0F8
:104220005CC024C08091DC0180FD33C181FD31C1BF
:1042300054C08091DC0180FD26C18091DD0180FFAA
:104240002DC18091DC0184FD1BC1C3EED0E026C1ED
:104250008091DC0182FF22C1F4CF8091DC0182FDDC
:1042600015C18091DD0180FD14C1EBCF8091DD018E
:1042700081FF14C18091DC0184FD02C1C7EED0E052
:104280000DC18091DC0183FF09C1F4CF8091DC0175
:1042900083FD02C18091DD0181FFECCFC4EED0E04F
:1042A000FDC08091DC0185FFF9C0C9E2D0E0F6C015
:1042B0008091DC0185FFF2C0C5E3D0E0EFC08091C2
:1042C000DC0186FFEBC0CAE2D0E0E8C08091DC01EF
:1042D00086FFE4C0C1E3D0E0E1C0C11523E5D20709
:1042E00098F5C11542E5D40708F095C0C11580E2E4
:1042F000D807C0F4C11521E0D20708F0CFC0C53AF5
:10430000D10548F4C430D10508F0C8C0C130D1058A
:1043100009F4C4C0B5C0CE01805E9109089708F0C9
:10432000AFC0BCC0C11541E5D40708F06FC0C115CE
:1043300080E5D80708F04EC0C11520E4D20708F484
:104340009FC0DF70D06AAAC0C11546E5D40700F54A
:10435000C11585E5D80708F079C0C11524E5D20755
:1043600008F06FC0CE018370992721E030E002C0D1
:10437000220F331F8A95E2F78C2F8695869540E2AF
:10438000849FC0011124E901C82BD92BDA6886C0AB
:10439000C1154AE5D40778F4C11589E5D80708F0B6
:1043A0005FC0C11528E5D20708F46AC0DC2FCC270E
:1043B000C06FD06A73C0CE0190568115904208F04C
:1043C0005FC08D2F8F710E940D1FDD27D0628F710E
:1043D000D82B64C0CE0174E0969587957A95E1F765
:1043E00083709C2F937021E030E002C0220F331FB6
:1043F0009A95E2F73C68382BCF70C695C69580E257
:10440000C89FE0011124C22BD32B48C0DC2FCC273E
:10441000C16FD06A43C0CE018370992721E030E09C
:1044200002C0220F331F8A95E2F78C2F869586955E
:1044300040E2849FC0011124E901C82BD92BDC681C
:104440002DC0DC2FCC27C46FD06A28C08C2F0E94CF
:104450000D1F8F71C82FD0E0DC2FCC27D0621EC07B
:104460008C2F8F700E940D1F94E0D695C7959A955A
:10447000E1F7CF70D0E0DC2FCC27D069C82B0EC07D
:10448000C0E0D0E00BC0C9E3D0E008C0C2EED0E08D
:1044900005C0C0EED0E002C0C6EED0E0CE01DF9194
:1044A000CF910895E8E3F2E080818E7F80830E94BF
:1044B000E01AEBEEF1E08281816082832FEF80E7EA
:1044C00092E0215080409040E1F700C000000C9441
:1044D000E71A9091380290FF3BC09170811102C0A1
:1044E000926006C08B3210F0946502C0880F982B42
:1044F000909338028091ED0181608093ED016623F5
:1045000051F0609138027091390280913A02909195
:104510003B020E94AC1F60913802669570E04BE050
:1045200050E087E291E00E948E2E892B19F00E94C4
:10453000E01A02C00E94F21E81E08093E80120E0B0
:1045400040913B0260913A02809139020C94D31D54
:104550000895809138028695815009F48AE261E0DD
:104560000C9469228091380286958F5F8B3208F017
:1045700081E061E00C9469228F929F92AF92BF928A
:10458000CF92DF92EF92FF920F931F93CF93DF931F
:1045900005E311E082EDE82E81E0F82E99E3892E03
:1045A00091E0992E6701D0E0AA24A394B12CB80120
:1045B000D8018C91F894E82FE295EF70F0E021A1FA
:1045C0008F70A50102C0440F551F8A95E2F7CA01FA
:1045D000922F982B91A392A18095892382A37894FE
:1045E00050EA5A95F1F7EDE3F1E020E030E0C0E069
:1045F0004191842F82958F7090E0DC0190968C9190
:1046000090E04F7002C0959587954A95E2F780FD3E
:1046100007C08A2D022E01C0880F0A94EAF701C054
:1046200080E0C82B2F5F3F4F2630310509F70F5F21
:104630001F4FFB0180810E94C820D6018C91C817B2
:1046400019F0CC9381E001C080E0D82BBFEFCB1AEA
:10465000DB0A8016910609F0AACFC091DB01DD23A9
:1046600049F081E080934C050E94882490934B058B
:1046700080934A0580914C058823B9F080914A05C2
:1046800090914B050E946D24069778F0EC2FF0E096
:10469000E35CFD4FD7018D917D018193B6EDEB1663
:1046A000B1E0FB06B9F710924C050E94AB208823BD
:1046B000D1F1C091DA018091ED018823E9F085E024
:1046C000E8E3F2E0A4ECB1E001900D928A95E1F705
:1046D0008091EB019091EC01A091ED018093C901D3
:1046E0009093CA01A093CB0181E090E00E949D2CA1
:1046F000892B11F41092ED0180E090E00E949D2C36
:10470000892B09F063C0EC2FF0E0E35CFD4F80E003
:1047100090E0DC01A353BE4F2C912193019684308D
:104720009105B9F750C0E091DB010E2F10E08091A8
:10473000CC018830C9F58091CB0180FF12C08091F7
:10474000C40180FF0CC080913802816080933802E0
:104750008091C40160E086950E94692202C00E9497
:1047600052228091CB0181FF09C020E04091C70116
:104770006091C6018091C5010E94D31D8091CB013B
:1047800082FF09C08091CA01882319F00E94F21E9D
:1047900002C00E94E01A8091CB0183FF03C081E038
:1047A0008093E8011092CC01F801E35CFD4F80E0BA
:1047B00090E02191DC01A353BE4F2C9301968430ED
:1047C0009105B9F713C010924D0510C080914D05A9
:1047D0008F5F80934D05863048F0E091DA01F0E07C
:1047E000E35CFD4F10821182128213828D2FDF91C4
:1047F000CF911F910F91FF90EF90DF90CF90BF90DE
:10480000AF909F908F900895089508950895809196
:1048100049020895CF93DF9321E02093E9002FEF21
:104820003091E800215035FD06C035ED3A95F1F79D
:1048300000002111F5CF2091E80025FF14C0EC0104
:1048400040E050E068E070E00E94BE188091E8000F
:104850008E778093E80088E0FE01AAE4B2E0019040
:104860000D928A95E1F7DF91CF91089587E797E759
:1048700090930108809300089AE088E10FB6F894BD
:10488000A895809360000FBE90936000FFCF78944E
:104890001F920F920FB60F9211248F939F93AF9395
:1048A000BF938091B6059091B705A091B805B091DE
:1048B000B9050196A11DB11D8093B6059093B7056A
:1048C000A093B805B093B905BF91AF919F918F9117
:1048D0000F900FBE0F901F9018959C014FB7F89442
:1048E0008091B6059091B705A091B805B091B90532
:1048F0004FBF821B930B08952FB7F8946091B605B4
:104900007091B7058091B8059091B9052FBF0895B2
:104910002FB7F8948091B6059091B705A091B8058E
:10492000B091B9052FBF08951F920F920FB60F9245
:1049300011248F939F93AF93BF938091E1018111D5
:1049400013C08091B6059091B705A091B805B091BC
:10495000B9054196A11DB11D8093B6059093B70589
:10496000A093B805B093B905BF91AF919F918F9176
:104970000F900FBE0F901F9018959C01FC0132966E
:104980009FEF80E04191461789F09F3F19F4411154
:1049900001C0982F8F5F8630A9F79F3F39F0F9014A
:1049A000E90FF11D97FDFA95628308950895CF935D
:1049B00084E090E00E94852DC82F81E290E00E9463
:1049C000852D2C2F30E0A901582BCA01CF910895D5
:1049D0006CEE7EEF80E090E00E94B72D60E082E018
:1049E00090E00E94992D60E083E090E00E94992D74
:1049F0001092B2051092B3051092B4051092B5054D
:104A000060E084E090E00E94992D60E081E290E017
:104A10000E94992D60E085E090E00E94992D60E071
:104A200086E090E00E94992D6FEF87E090E00E9471
:104A3000992D40E050E0BA0188E090E00E94AB2D53
:104A400060E08DE090E00E94992D40E050E0BA01D6
:104A500088E190E00E94AB2D60E087E190E00E9449
:104A6000992D40E050E0BA018CE190E00E94AB2D1E
:104A700060E080E290E00E94992D40E050E0BA01B1
:104A800088E190E00E94AB2D40E050E0BA018FE059
:104A900090E00E94AB2D40E050E0BA0183E190E04D
:104AA0000C94AB2D8091B10581111092B105089540
:104AB0009091B0058091AF05892B2091AE05982F7C
:104AC000922B90934F058091B105882389F0892B13
:104AD00080934F05E1E5F5E097E080E0915029F003
:104AE00021912223D9F38F5FF9CF81110E945225A2
:104AF000E091DF01F091E001309731F00280F38125
:104B0000E02D8FE495E009940895BF92CF92DF9253
:104B1000EF92FF920F931F93CF93DF938C01C0907E
:104B20005E02D0905F02E0906002F090610280919E
:104B3000B2059091B305A091B405B091B505C82A0E
:104B4000D92AEA2AFB2ACFE1D0E0D701C6010C2EF0
:104B500004C0B695A795979587950A94D2F780FDDE
:104B600004C0219790F7B12C07C0BC2EB8018C2F40
:104B70000E94DF200197A9F38B2DDF91CF911F9128
:104B80000F91FF90EF90DF90CF90BF900895CF935B
:104B9000DF93EC010E948525BE010E94DF20DF919A
:104BA000CF910895292F220F920F990F890F682F07
:104BB000669566956695982F977085E0689FB00119
:104BC000112440E050E080E0FB01E40FF51FE157C5
:104BD000FA4F208130E0092E02C0369527950A94BD
:104BE000E2F721703327042E01C0220F0A94EAF75E
:104BF000822B4F5F5F4F4530510531F70895292FC4
:104C0000220F920F990F890FE82FE695E695E6950A
:104C1000877051E001C0550F8A95EAF785E0E89F5B
:104C2000F0011124E157FA4F20E030E070E04081BC
:104C3000CB01022E02C0969587950A94E2F7817007
:104C4000819584278523842781932F5F3F4F2530CB
:104C5000310569F7089560935E0270935F02809357
:104C60006002909361021092AF051092AE050C9411
:104C700058250F931F9341E050E060E070E004C0BE
:104C8000440F551F661F771F8A95D2F740955095A0
:104C90006095709580915E0290915F02A091600294
:104CA000B09161028A019B01082319232A233B2327
:104CB000C901B8011F910F910C942B262091AD05CD
:104CC000809582238093AD05982F977079F430E01A
:104CD000482F082E000C550B2417350739F0859501
:104CE000859585950E9439261092AD0508950F93FC
:104CF0001F9341E050E060E070E004C0440F551F96
:104D0000661F771F8A95D2F780915E0290915F02AD
:104D1000A0916002B09161028A019B01082B192BBE
:104D20002A2B3B2BC901B8011F910F910C942B2604
:104D30006093B2057093B3058093B4059093B50565
:104D40001092AF051092AE050C94582580918E05F7
:104D500090915D05891719F08F5F8770FBCF0895DB
:104D60000F931F93CF93DF9380915C0582958F7093
:104D700009F05DC080915905882309F458C08091DD
:104D80008E0510915D056091570570915805C09191
:104D90005A05D0915B0591E06F3F09F090E0292F13
:104DA00006E0811709F443C0209721F07F3F21F0EE
:104DB00030E003C031E001C0322F90E030FD34C05C
:104DC000089FF001099FF00D1124DF01A25ABA4F8C
:104DD00011963C911197371327C03C91361324C08C
:104DE00012963C91129731111FC013964D915C9110
:104DF00014974C1B5D0B483C5105B0F480915C0549
:104E00008F70806180935C05ED59FA4F80818F70BF
:104E10008061808387E595E00E94BB0CDF91CF9194
:104E20001F910F910C94A62601968770BACFDF913F
:104E3000CF911F910F9108959F92AF92BF92CF9201
:104E4000DF92EF92FF920F931F93CF93DF93CDB733
:104E5000DEB761970FB6F894DEBF0FBECDBF8C01F1
:104E600085E0F801DE011D9601900D928A95E1F72B
:104E7000F80190818181E280309157056091580559
:104E800040915A0550915B054115510531F06F3F36
:104E900031F421E03F3F19F403C021E001C020E0DC
:104EA000F22FF1709F2E20FD23C1F801C380D48022
:104EB00027E5A22E25E0B22EF0905905F601E41B5D
:104EC000F50BFF2009F4CEC020915C05E83CF1050C
:104ED00008F099C0422F407F09F051C0681311C0FB
:104EE00039130FC0FE2CE1100CC02F7020612093ED
:104EF0005C05C5010E94BB0C80915C05F8018583AF
:104F000037C1CD2831F08F3F31F421E09F3F19F4B4
:104F100003C021E001C020E020FD03C021E02E25D8
:104F200002C020E030E0F22FF170FF2E20FF1DC004
:104F300020918E0540915D0556E0241709F4F6C0D6
:104F400030E0529FF001539FF00D1124E25AFA4FC6
:104F50006181861306C06081961303C06281E612E8
:104F600004C02F5F3F4F2770E8CFFE2CEE2009F4DE
:104F7000FFC080915C05816080935C0550C0681320
:104F800007C0391305C0E11003C0F80125838DC0A7
:104F90009D878E878D859E850E94CB28882369F109
:104FA000EE2059F120915C05822F82958F7090E060
:104FB000029774F0809157059091580598878F83D8
:104FC0001986DB86CA862C87CE0107960E94BB0C09
:104FD00086E0F801A7E5B5E001900D928A95E1F72A
:104FE0000E94B0260DC06817E1F09D878E878D85E1
:104FF0009E850E94CB2881111EC0C8010E94BB0C57
:10500000FF24F394B5C0422F407F69F787E595E010
:105010000E94BB0C86E0F50111928A95E9F7F12C0C
:10502000A7C03913E2CFE110E0CFF8012583C80112
:105030000E94BB0C57C0EE2001F320915C05822F2B
:1050400082958F7090E002971CF2809157059091A5
:1050500058059A8389831B82DD82CC822E83CE0100
:105060000196B4CFE83CF105E8F5FE2CEE2029F2DC
:10507000681327C0391325C020915C0520FD18C096
:10508000822F82958F70482F50E04115510581F095
:10509000F80125834F30510541F08F5F982F92958D
:1050A000907F822F8F70892B8583C8010E94BB0C53
:1050B00086E0F801A7E5B5E001900D928A95E1F749
:1050C00057C09D878E878D859E850E94CB28811134
:1050D0007FCF80915C05816080935C05C8010E9450
:1050E000BB0C46C086E0F50111928A95E9F740C0F5
:1050F000EE2009F482CF9D878E878D859E850E9444
:10510000CB28F82E882309F478CF86E0F801A7E5AC
:10511000B5E001900D928A95E1F780915705909145
:1051200058050E94C7250E94B02622C09D878E8701
:105130008D859E850E94C725292F22952F702230AC
:1051400028F49F7039F0811105C00BC0243028F479
:105150009F7049F4805E883020F0C8010E94BB0C2B
:105160009F2CF92C05C0F8019581907F99F7F9CF14
:105170008F2D61960FB6F894DEBF0FBECDBFDF91C5
:10518000CF911F910F91FF90EF90DF90CF90BF9044
:10519000AF909F9008950E94C725292F2F70E92F67
:1051A000E295EF704E2F50E0FA013297EE30F105A4
:1051B000B8F4EE55FF4F0C94722E803F99F018F41E
:1051C000883E70F40FC0843F59F40CC0883E50F004
:1051D000813F31F407C0822F869586958695089584
:1051E00080E0089581E008951092B00586E0E1E541
:1051F000F5E0DF011D928A95E9F71092AF05109254
:10520000AE050C945825882341F080959091B00507
:1052100089238093B0050C9458250895882339F08C
:105220009091B005892B8093B0050C945825089572
:10523000882309F457C09CEF980F913A60F4EFE48B
:10524000F5E09281891301C01282319645E0E5357F
:10525000F407B9F714C090E2980F983090F4877073
:1052600021E030E0A90102C0440F551F8A95E2F702
:10527000CA0180959091B00589238093B0050C9464
:1052800058259BE5980F9330A0F48091BA05909132
:10529000BB05892B39F11092BB051092BA05E0913C
:1052A000DF01F091E0013097E9F00680F781E02D11
:1052B00016C0885A8731B0F48091BC059091BD0525
:1052C000892B81F01092BD051092BC05E091DF01A1
:1052D000F091E001309731F00084F185E02D80E01D
:1052E00090E009940895CF938823C9F19CEF980F1B
:1052F000913AF8F4C82FE1E5F5E08191C81729F05B
:1053000045E0E735F407C9F70EC0EFE4F5E085E5C1
:1053100095E02281C21301C0128231968E179F0739
:10532000C1F70E9458256C2F8FE495E00E94BD24A0
:1053300013C090E2980F983090F4877021E030E02D
:10534000A90102C0440F551F8A95E2F7CA01909146
:10535000B005892B8093B005CF910C945825CF913F
:105360000895CF93C82F0E947329C93349F42FEFB2
:1053700087EE93E0215080409040E1F700C00000AC
:105380008C2FCF910C9418298091550287FF11C062
:105390008091E80082FD05C080915D028111F8CF07
:1053A00011C08091E8008B770BC080915D0288234B
:1053B00049F08091E80080FFF8CF8091E8008E7777
:1053C0008093E8000895982F973068F59093E9004E
:1053D000981739F07091EC002091ED005091F00099
:1053E00003C0242F762F50E021FD02C09F5FECCF39
:1053F0003091EB003E7F3093EB003091ED003D7F2C
:105400003093ED003091EB0031603093EB007093FE
:10541000EC002093ED005093F0002091EE0027FD6A
:10542000E5CF80E008958F708093E90081E00895D2
:1054300020915B0230915C022617370748F0611516
:10544000710539F42091E8002E772093E80001C01F
:10545000B901FC0120E06115710579F180915D02CF
:105460008823F1F18530F1F18091E80083FD3CC0A3
:105470008091E80082FD2EC08091E80080FFEBCF94
:105480002091F3008091F20090E0922B611571055C
:1054900051F08830910538F421912093F10061504A
:1054A00071090196F3CF21E0089709F020E080917F
:1054B000E8008E778093E800CECF2111CFCF0AC0CD
:1054C00080915D02882361F0853061F08091E80071
:1054D00083FD0AC08091E80082FFF2CF80E008954A
:1054E00082E0089583E0089581E008951092B90064
:1054F0008CE08093B8000895EF92FF920F931F9372
:10550000CF93DF93182FEB011092BC0084EA8093B5
:10551000BC000E9488247C018091BC0087FD0EC0E5
:10552000CF3F8FEFD807C1F30E9488248E199F09BF
:105530008C179D0788F38EEF9FEF2EC08091B900E6
:10554000887F883041F08091B900887F803119F0E0
:105550008FEF9FEF21C01093BB0084E88093BC00C5
:105560000E9488248C018091BC0087FD0CC0CF3F35
:105570008FEFD807C1F30E948824801B910B8C17F2
:105580009D0788F3D8CF8091B900887F883111F0CA
:105590008034F1F680E090E0DF91CF911F910F9180
:1055A000FF90EF9008950F931F93CF93DF93EB013C
:1055B0008093BB0084E88093BC000E9488248C0107
:1055C0008091BC0087FD0EC0CF3F8FEFD807C1F39D
:1055D0000E948824801B910B8C179D0788F38EEF07
:1055E0009FEF0CC02091B900287F81E090E0283225
:1055F00011F480E090E0919581959109DF91CF9130
:105600001F910F910895CF92DF92EF92FF920F9327
:105610001F93CF93DF936B018A017901B9010E9437
:105620007C2AE6010C0D1D1DC017D10761F424E989
:105630002093BC00DF91CF911F910F91FF90EF90CD
:10564000DF90CF90089597FDF2CFB70189910E9426
:10565000D32AEACFCF92DF92EF92FF920F931F935C
:10566000CF93DF93C62F6A017901B8010E947C2A8B
:1056700097FD11C0B8018C2F0E94D32AE601EC0CD3
:10568000FD1CCE15DF0539F097FD05C0B8018991E5
:105690000E94D32AF6CF24E92093BC00DF91CF915A
:1056A0001F910F91FF90EF90DF90CF90089584E9C4
:1056B0008093BC0008958EE14A9B02C08150E1F7BF
:1056C0004A9BFECF08955A9880E28A95F1F75A9A3C
:1056D0000895FC012AE02A95F1F790E020E080E0AF
:1056E00031E0261779F040E14A95F1F7880F4A9B9F
:1056F00002C08160932700C0000040E14A95F1F7A5
:105700002F5FEFCF20E12A95F1F729B100C000000B
:1057100030E13A95F1F722FB222720F992272081E8
:10572000920F90830895EF92FF920F931F93CF9360
:10573000DF931F92CDB7DEB719828C017C01E60E94
:10574000F11C0E151F0559F00E945B2B68E0CE017D
:1057500001960E94692BF80181938F01F2CF81E0BD
:105760009981911180E00F90DF91CF911F910F915E
:10577000FF90EF9008959093C0058093BF056093CC
:10578000BE05529A5A9A08959093C0058093BF051A
:105790006093BE0552985A9AEA9AE9E6F0E0808151
:1057A0008F7C80830895615091E001C0990F6A95C4
:1057B000EAF720E031E0992361F0492F482319F0FE
:1057C0005A9A232701C05A9840E24A95F1F79695D4
:1057D000F2CF222311F05A9A01C05A9880E28A959A
:1057E000F1F75A980895FF920F931F93CF93DF9389
:1057F000EC018C01060F111DC017D10741F0F99083
:105800000E94632B68E08F2D0E94D32BF5CFDF9190
:10581000CF911F910F91FF9008951F920F920FB695
:105820000F9211240F931F932F933F934F935F93E6
:105830006F937F938F939F93AF93BF93EF93FF9358
:10584000CF93DF931F92CDB7DEB719820E945B2BF7
:1058500067E0CE0101960E94692B382F3695369568
:105860003695932F96959570232F2570920F292F9B
:105870002370969596958770920F891348C08981F9
:10588000811145C08091BE05831708F440C080E1B6
:105890008A95F1F75A9A529AA2E0AA95F1F700C0B8
:1058A0000091BF051091C005B8E03B9F000D111D90
:1058B00011245A98F8016581662321F08681978129
:1058C0000E94F32B0E94632BF0E1FA95F1F75A98AE
:1058D00052985A9A80E18A95F1F7D80112966C9104
:1058E0001297662369F013968D919C9114970E94EC
:1058F000932BD801ED91FC91811105C082E004C089
:10590000D801ED91FC9188E080830E945B2B0F9081
:10591000DF91CF91FF91EF91BF91AF919F918F91C7
:105920007F916F915F914F913F912F911F910F91B7
:105930000F900FBE0F901F9018950F931F93CF934A
:10594000DF932091BE0530E0281739070CF471C0B1
:105950009C0193E0220F331F9A95E1F7C091BF0598
:10596000D091C005C20FD31FF894529A5A9845E0BF
:105970004A95F1F70000982F969595708570890FDC
:10598000982F937086958695890F8901082B0E9420
:10599000632B84E08A95F1F700C067E0802F0E94B6
:1059A000D32B40E14A95F1F752985A9A4A9902C08E
:1059B00000C0FCCF87E090E04A9B0EC0019751F4F5
:1059C000529A5A9AE881F98181E08083789481E043
:1059D00090E031C000C0F0CF6D81662381F08E81F0
:1059E0009F810E94932B81110AC0529A5A9AE88192
:1059F000F98182E08083789482E090E01CC00E946C
:105A00005B2B80E28A95F1F75A98529A40E14A95C9
:105A1000F1F76A81662321F08B819C810E94F32B30
:105A20000E94632BE881F9811082789480E090E0F5
:105A300002C084E090E0DF91CF911F910F91089513
:105A40008F929F92AF92BF92CF92DF92EF92FF928E
:105A5000CF93DF93EC01688179818A819B81611505
:105A600071058105910521F464E279ED8BE597E0FC
:105A70002DE133EF41E050E00E94CD2D49015A0164
:105A80009B01AC01A7EAB1E40E94EC2D6B017C0103
:105A9000ACEEB4EFA50194010E94FA2DDC01CB011C
:105AA0008C0D9D1DAE1DBF1DB7FF03C00197A10941
:105AB000B04888839983AA83BB839F77DF91CF9176
:105AC000FF90EF90DF90CF90BF90AF909F908F901E
:105AD00008950E94202D089580E091E00E94202DDD
